:020000040800F2
:1000000000280020C50C0008690C00086F0C0008CF
:10001000750C00087B0C0008810C00080000000033
:10002000000000000000000000000000870C000835
:10003000930C0008000000009F0C0008AB0C0008A7
:100040000D0D00080D0D00080D0D00080D0D000828
:100050000D0D00080D0D00080D0D00080D0D000818
:100060000D0D00080D0D00080D0D00080D0D000808
:100070000D0D00080D0D00080D0D00080D0D0008F8
:100080000D0D00080D0D00080D0D00080D0D0008E8
:100090000D0D00080D0D00080D0D00080D0D0008D8
:1000A0000D0D00080D0D00080D0D00080D0D0008C8
:1000B0000D0D00080D0D0008000000000D0D0008DA
:1000C0000D0D000800000000000000000D0D0008EC
:1000D000000000000D0D00080D0D000800000000DC
:1000E0000D0D00080D0D00080D0D000800000000AA
:1000F0000000000000000000000000000000000000
:0C01000000000000000000005FF808F1A3
:10010C0010B5054C237833B9044B13B10448AFF345
:10011C0000800123237010BD180000200000000097
:10012C00181B000808B5034B1BB103490348AFF378
:10013C00008008BD000000001C000020181B0008F7
:10014C0080B582B000AF0346FB71FB79052B6FD8ED
:10015C0001A252F823F000BF7D0100089D010008A8
:10016C00BD010008DD010008FD0100081D020008AA
:10017C0001222021304801F0A9F8002240212E480C
:10018C0001F0A4F8002280212B4801F09FF84FE0E9
:10019C0000222021284801F099F80022402126480D
:1001AC0001F094F801228021234801F08FF83FE000
:1001BC0000222021204801F089F8012240211E480C
:1001CC0001F084F8002280211B4801F07FF82FE019
:1001DC0001220421184801F079F800220821164860
:1001EC0001F074F800221021134801F06FF81FE0A1
:1001FC0000220421104801F069F8002208210E4861
:10020C0001F064F8012210210B4801F05FF80FE0B7
:10021C0000220421084801F059F80122082106485F
:10022C0001F054F800221021034801F04FF800BFF0
:10023C0000BF0837BD4680BD0008014080B582B0C4
:10024C0000AF78607B68092B00F2808101A252F824
:10025C0023F000BF89020008D1020008190300082E
:10026C0061030008A9030008F10300083904000821
:10027C0081040008C90400081105000800220121AE
:10028C00C64801F023F800220221C44801F01EF8F0
:10029C0000220421C14801F019F800220821BF48AE
:1002AC0001F014F800221021BC4801F00FF80022D4
:1002BC002021BA4801F00AF801224021B74801F088
:1002CC0005F867E101220121B44800F0FFFF00228C
:1002DC000221B24800F0FAFF00220421AF4800F0DE
:1002EC00F5FF01220821AD4800F0F0FF012210219A
:1002FC00AA4800F0EBFF01222021A84800F0E6FFFD
:10030C0001224021A54800F0E1FF43E10022012138
:10031C00A24800F0DBFF00220221A04800F0D6FF2B
:10032C00012204219D4800F0D1FF002208219B48A6
:10033C0000F0CCFF00221021984800F0C7FF0122EA
:10034C002021964800F0C2FF00224021934800F083
:10035C00BDFF1FE100220121904800F0B7FF0022F1
:10036C0002218E4800F0B2FF002204218B4800F0DD
:10037C00ADFF00220821894800F0A8FF01221021BE
:10038C00864800F0A3FF01222021844800F09EFF44
:10039C0000224021814800F099FFFBE0012201215D
:1003AC007E4800F093FF002202217C4800F08EFF73
:1003BC0000220421794800F089FF012208217748A6
:1003CC0000F084FF01221021744800F07FFF00220E
:1003DC002021724800F07AFF002240216F4800F083
:1003EC0075FFD7E0002201216C4800F06FFF01225D
:1003FC0002216A4800F06AFF00220421674800F0DD
:10040C0065FF00220821654800F060FF01221021E1
:10041C00624800F05BFF00222021604800F056FF8C
:10042C00002240215D4800F051FFB3E00022012181
:10043C005A4800F04BFF01220221584800F046FFB9
:10044C0000220421554800F041FF002208215348A6
:10045C0000F03CFF00221021504800F037FF002232
:10046C0020214E4800F032FF002240214B4800F082
:10047C002DFF8FE000220121484800F027FF0022C9
:10048C000221464800F022FF00220421434800F0DC
:10049C001DFF01220821414800F018FF0122102104
:1004AC003E4800F013FF012220213C4800F00EFFD3
:1004BC0001224021394800F009FF6BE000220121A4
:1004CC00364800F003FF00220221344800F0FEFE03
:1004DC0000220421314800F0F9FE002208212F48A7
:1004EC0000F0F4FE002210212C4800F0EFFE002258
:1004FC0020212A4800F0EAFE00224021274800F083
:10050C00E5FE47E000220121244800F0DFFE002236
:10051C000221224800F0DAFE002204211F4800F0DC
:10052C00D5FE002208211D4800F0D0FE012210212A
:10053C001A4800F0CBFE00222021184800F0C6FE1D
:10054C0000224021154800F0C1FE23E000220121C9
:10055C00124800F0BBFE00220221104800F0B6FE4B
:10056C00002204210D4800F0B1FE002208210B48A6
:10057C0000F0ACFE00221021084800F0A7FE00227B
:10058C002021064800F0A2FE00224021034800F082
:10059C009DFE00BF00BF0837BD4680BD000C01406A
:1005AC0080B582B000AF78607B68092B00F2C08107
:1005BC0001A252F823F000BFED0500084106000827
:1005CC0095060008E90600083D0700089107000899
:1005DC00E5070008390800088D080008E108000844
:1005EC0000228021D04800F071FE00224FF480716F
:1005FC00CE4800F06BFE00224FF40071CB4800F0A7
:10060C0065FE00224FF48061C84800F05FFE0022B6
:10061C004FF40061C54800F059FE00224FF48051A0
:10062C00C24800F053FE01224FF40051BF4800F0C5
:10063C004DFEA7E101228021BB4800F047FE0022BD
:10064C004FF48071B94800F041FE00224FF4007164
:10065C00B64800F03BFE01224FF48061B34800F035
:10066C0035FE01224FF40061B04800F02FFE01224C
:10067C004FF48051AD4800F029FE01224FF4005197
:10068C00AA4800F023FE7DE100228021A64800F05C
:10069C001DFE00224FF48071A44800F017FE0122C9
:1006AC004FF40071A14800F011FE00224FF480615C
:1006BC009E4800F00BFE00224FF400619B4800F0B6
:1006CC0005FE01224FF48051984800F0FFFD0022F6
:1006DC004FF40051954800F0F9FD53E100228021C0
:1006EC00914800F0F3FD00224FF480718F4800F028
:1006FC00EDFD00224FF400718C4800F0E7FD002264
:10070C004FF48061894800F0E1FD01224FF4006153
:10071C00864800F0DBFD01224FF48051834800F045
:10072C00D5FD00224FF40051804800F0CFFD29E1A7
:10073C00012280217C4800F0C9FD00224FF4807119
:10074C007A4800F0C3FD00224FF40071774800F0A6
:10075C00BDFD01224FF48061744800F0B7FD012209
:10076C004FF40061714800F0B1FD00224FF480514C
:10077C006E4800F0ABFD00224FF400516B4800F0C6
:10078C00A5FDFFE000228021674800F09FFD0122BB
:10079C004FF48071654800F099FD00224FF4007110
:1007AC00624800F093FD00224FF480615F4800F036
:1007BC008DFD01224FF400615C4800F087FD0022A2
:1007CC004FF48051594800F081FD00224FF4005144
:1007DC00564800F07BFDD5E000228021524800F005
:1007EC0075FD01224FF48071504800F06FFD00221E
:1007FC004FF400714D4800F069FD00224FF4806108
:10080C004A4800F063FD00224FF40061474800F0B5
:10081C005DFD00224FF48051444800F057FD00224A
:10082C004FF40051414800F051FDABE00022802113
:10083C003D4800F04BFD00224FF480713B4800F026
:10084C0045FD00224FF40071384800F03FFD0122B5
:10085C004FF48061354800F039FD01224FF40061FE
:10086C00324800F033FD01224FF480512F4800F044
:10087C002DFD01224FF400512C4800F027FD81E0A2
:10088C0000228021284800F021FD00224FF48071C5
:10089C00264800F01BFD00224FF40071234800F0A5
:1008AC0015FD00224FF48061204800F00FFD00225E
:1008BC004FF400611D4800F009FD00224FF48051F7
:1008CC001A4800F003FD00224FF40051174800F0C5
:1008DC00FDFC57E000228021134800F0F7FC0022B9
:1008EC004FF48071114800F0F1FC00224FF40071BC
:1008FC000E4800F0EBFC00224FF480610B4800F036
:10090C00E5FC01224FF40061084800F0DFFC0022F6
:10091C004FF48051054800F0D9FC00224FF40051EF
:10092C00024800F0D3FC2DE0000C0140000801400F
:10093C0000228021154800F0C9FC00224FF4807180
:10094C00134800F0C3FC00224FF40071104800F073
:10095C00BDFC00224FF480610D4800F0B7FC002272
:10096C004FF400610A4800F0B1FC00224FF48051B2
:10097C00074800F0ABFC00224FF40051044800F093
:10098C00A5FC00BF00BF0837BD4680BD000C014070
:10099C000008014080B500AF00F0B4F900F096F803
:1009AC0000F0D0F8454B1B681846FFF747FC444B4A
:1009BC001B681846FFF7F4FD424B1B78032B68D8D5
:1009CC0001A252F823F000BFE50900080D0A000847
:1009DC003B0A0008630A00080020FFF7B1FB042063
:1009EC00FFF7AEFB384B1B68002B4BD1354B01226C
:1009FC001A70354B02221A60314B02221A6041E008
:100A0C000020FFF79DFB0520FFF79AFB2E4B1B6880
:100A1C00002B39D12B4B02221A702B4B03221A605C
:100A2C00264B03221A60264B05221A602CE0032069
:100A3C00FFF786FB0120FFF783FB234B1B68002B82
:100A4C0024D1204B03221A701F4B02221A601B4B1D
:100A5C0002221A601AE00320FFF772FB0220FFF754
:100A6C006FFB194B1B68002B12D1164B00221A700E
:100A7C00154B03221A60114B05221A60104B0322EE
:100A8C001A6005E000BF04E000BF02E000BF00E018
:100A9C0000BF4FF47A7000F097F90B4B1B68013BC9
:100AAC00094A1360054B1B68013B044A1360044B55
:100ABC001B68013B024A136074E700BF040000206E
:100ACC0008000020340000200000002080B590B009
:100ADC0000AF07F1180328220021184601F00EF888
:100AEC003B1D00221A605A609A60DA601A61022378
:100AFC00BB610123BB621023FB6200237B6307F104
:100B0C001803184600F0FAFB0346002B01D000F046
:100B1C006DF80F237B600023BB600023FB60002378
:100B2C003B6100237B613B1D0021184600F066FEF3
:100B3C000346002B01D000F059F800BF4037BD46EA
:100B4C0080BD000080B586B000AF07F1080300221D
:100B5C001A605A609A60DA60214B9B69204A43F014
:100B6C00040393611E4B9B6903F004037B607B6859
:100B7C001B4B9B691A4A43F008039361184B9B6902
:100B8C0003F008033B603B68012243F6FC711548F7
:100B9C0000F09CFB0122FF21134800F097FB43F669
:100BAC00FC73BB600123FB6000233B6102237B6170
:100BBC0007F1080319460B4800F00EFAFF23BB603F
:100BCC000123FB6000233B6102237B6107F10803D7
:100BDC001946054800F000FA00BF1837BD4680BD25
:100BEC000010024000080140000C014080B400AF2E
:100BFC0072B600BFFEE7000080B485B000AF154BA5
:100C0C009B69144A43F001039361124B9B6903F0F7
:100C1C000103BB60BB680F4BDB690E4A43F080538A
:100C2C00D3610C4BDB6903F080537B607B680A4B10
:100C3C005B68FB60FB6823F0E063FB60FB6843F0E0
:100C4C008063FB60044AFB68536000BF1437BD46E9
:100C5C0080BC7047001002400000014080B400AF1F
:100C6C00FEE780B400AFFEE780B400AFFEE780B4CF
:100C7C0000AFFEE780B400AFFEE780B400AF00BF6A
:100C8C00BD4680BC704780B400AF00BFBD4680BC81
:100C9C00704780B400AF00BFBD4680BC704780B5C4
:100CAC0000AF00F075F800BF80BD80B400AF00BF8E
:100CBC00BD4680BC70470000FFF7F7FF0B480C499E
:100CCC000C4A002302E0D458C4500433C4188C429C
:100CDC00F9D3094A094C002301E013600432A24203
:100CEC00FBD300F0E7FEFFF755FE70470000002035
:100CFC00180000205C1B0008180000203C0000209D
:100D0C00FEE7000080B500AF084B1B68074A43F0B4
:100D1C0010031360032000F02BF90F2000F008F8EB
:100D2C00FFF76AFF0023184680BD00BF0020024079
:100D3C0080B582B000AF7860124B1A68124B1B78EA
:100D4C0019464FF47A73B3FBF1F3B2FBF3F3184685
:100D5C0000F035F90346002B01D001230EE07B682F
:100D6C000F2B0AD8002279684FF0FF3000F00BF9F6
:100D7C00064A7B681360002300E0012318460837FD
:100D8C00BD4680BD0C000020140000201000002087
:100D9C0080B400AF054B1B781A46054B1B681344F7
:100DAC00034A136000BFBD4680BC7047140000208E
:100DBC003800002080B400AF024B1B681846BD46BB
:100DCC0080BC70473800002080B584B000AF7860DC
:100DDC00FFF7F0FFB8607B68FB60FB68B3F1FF3F87
:100DEC0005D00A4B1B781A46FB681344FB6000BF06
:100DFC00FFF7E0FF0246BB68D31AFA689A42F7D8AD
:100E0C0000BF00BF1037BD4680BD00BF14000020DE
:100E1C0080B485B000AF78607B6803F00703FB609B
:100E2C000C4BDB68BB60BA684FF6FF031340BB602A
:100E3C00FB681A02BB68134343F0BF6343F40033EF
:100E4C00BB60044ABB68D36000BF1437BD4680BC8E
:100E5C00704700BF00ED00E080B400AF044BDB68CE
:100E6C001B0A03F007031846BD4680BC704700BF41
:100E7C0000ED00E080B483B000AF03463960FB7135
:100E8C0097F90730002B0ADB3B68DAB20C4997F96B
:100E9C0007301201D2B20B4483F800230AE03B68FE
:100EAC00DAB20849FB7903F00F03043B1201D2B20A
:100EBC000B441A7600BF0C37BD4680BC704700BF90
:100ECC0000E100E000ED00E080B489B000AFF86014
:100EDC00B9607A60FB6803F00703FB61FB69C3F13F
:100EEC000703042B28BF0423BB61FB690433062BC7
:100EFC0002D9FB69033B00E000237B614FF0FF321A
:100F0C00BB6902FA03F3DA43BB681A407B699A4067
:100F1C004FF0FF317B6901FA03F3D9437B680B4037
:100F2C00134318462437BD4680BC704780B582B049
:100F3C0000AF78607B68013BB3F1807F01D3012364
:100F4C000FE00A4A7B68013B53600F214FF0FF30E2
:100F5C00FFF790FF054B00229A60044B07221A60A2
:100F6C00002318460837BD4680BD00BF10E000E0E6
:100F7C0080B582B000AF78607868FFF749FF00BF9A
:100F8C000837BD4680BD80B586B000AF0346B9605A
:100F9C007A60FB7300237B61FFF75EFF78617A68F0
:100FAC00B9687869FFF790FF024697F90F30114640
:100FBC001846FFF75FFF00BF1837BD4680BD80B5F0
:100FCC0082B000AF78607868FFF7B0FF0346184630
:100FDC000837BD4680BD000080B48BB000AF786090
:100FEC00396000237B6200233B6248E101227B6A6B
:100FFC0002FA03F3FB613B681B68FA691340BB619F
:10100C00BA69FB699A4240F037813B685B68A34A36
:10101C0093425ED0A14A934275D8A14A934258D0CC
:10102C009F4A93426FD89F4A934252D09D4A934213
:10103C0069D89D4A93424CD09B4A934263D89B4AB1
:10104C00934246D0994A93425DD8122B2AD8122B40
:10105C0059D801A252F823F0DF100008B91000088B
:10106C00CB1000080D110008131100081311000813
:10107C0013110008131100081311000813110008B4
:10108C0013110008131100081311000813110008A4
:10109C00131100081311000813110008C1100008E7
:1010AC00D5100008824A934213D02CE03B68DB68D1
:1010BC003B6229E03B68DB6804333B6224E03B681D
:1010CC00DB6808333B621FE03B68DB680C333B6238
:1010DC001AE03B689B68002B02D104233B6213E0AF
:1010EC003B689B68012B05D108233B627B68FA693E
:1010FC001A6109E008233B627B68FA695A6103E0D4
:10110C0000233B6200E000BFBB69FF2B01D87B686A
:10111C0001E07B6804337B61BB69FF2B02D87B6ADF
:10112C009B0002E07B6A083B9B003B617B691A6871
:10113C000F213B6901FA03F3DB431A40396A3B691F
:10114C0001FA03F31A437B691A603B685B6803F08E
:10115C008053002B00F09080564B9B69554A43F00E
:10116C0001039361534B9B6903F00103BB60BB68A4
:10117C00514A7B6A9B08023352F82330FB607B6A2E
:10118C0003F003039B000F2202FA03F3DB43FA681C
:10119C001340FB607B68494A93420DD07B68484AF8
:1011AC00934207D07B68474A934201D1022304E063
:1011BC00032302E0012300E000237A6A02F0030219
:1011CC0092009340FA681343FB603B497B6A9B088F
:1011DC000233FA6841F823203B685B6803F4801300
:1011EC00002B06D0384B9A683749BB6913438B6088
:1011FC0006E0354B9A68BB69DB43334913408B607F
:10120C003B685B6803F40013002B06D02E4BDA68A6
:10121C002D49BB691343CB6006E02B4BDA68BB69E5
:10122C00DB4329491340CB603B685B6803F4003314
:10123C00002B06D0244B5A682349BB6913434B60DF
:10124C0006E0214B5A68BB69DB431F4913404B60D6
:10125C003B685B6803F48033002B06D01A4B1A688A
:10126C001949BB6913430B6006E0174B1A68BB693D
:10127C00DB43154913400B607B6A01337B623B688F
:10128C001A687B6A22FA03F3002B7FF4AFAE00BF1F
:10129C0000BF2C37BD4680BC704700BF0000321029
:1012AC00000031100000221000002110000012106C
:1012BC000000111000100240000001400008014025
:1012CC00000C0140001001400004014080B483B0C8
:1012DC0000AF78600B467B8013467B707B78002BCD
:1012EC0003D07A887B681A6103E07B881A047B68D8
:1012FC001A6100BF0C37BD4680BC704780B586B004
:10130C0000AF78607B68002B01D101236CE27B6815
:10131C001B6803F00103002B00F08780924B5B6885
:10132C0003F00C03042B0CD08F4B5B6803F00C0305
:10133C00082B12D18C4B5B6803F48033B3F5803FE0
:10134C000BD1894B1B6803F40033002B6CD07B68EA
:10135C005B68002B68D1012346E27B685B68B3F5C0
:10136C00803F06D1804B1B687F4A43F48033136067
:10137C002EE07B685B68002B0CD17B4B1B687A4A98
:10138C0023F480331360784B1B68774A23F4802353
:10139C0013601DE07B685B68B3F5A02F0CD1724B1A
:1013AC001B68714A43F4802313606F4B1B686E4AB1
:1013BC0043F4803313600BE06B4B1B686A4A23F4D5
:1013CC0080331360684B1B68674A23F480231360D7
:1013DC007B685B68002B13D0FFF7ECFC386108E0EE
:1013EC00FFF7E8FC02463B69D31A642B01D90323AF
:1013FC00FAE15D4B1B6803F40033002BF0D014E0D2
:10140C00FFF7D8FC386108E0FFF7D4FC02463B69D3
:10141C00D31A642B01D90323E6E1534B1B6803F465
:10142C000033002BF0D100E000BF7B681B6803F099
:10143C000203002B63D04C4B5B6803F00C03002BB6
:10144C000BD0494B5B6803F00C03082B1CD1464BAB
:10145C005B6803F48033002B16D1434B1B6803F0FD
:10146C000203002B05D07B681B69012B01D00123E3
:10147C00BAE13D4B1B6823F0F8027B685B69DB002B
:10148C00394913430B603AE07B681B69002B20D071
:10149C00364B01221A60FFF78DFC386108E0FFF72C
:1014AC0089FC02463B69D31A022B01D903239BE129
:1014BC002D4B1B6803F00203002BF0D02A4B1B684A
:1014CC0023F0F8027B685B69DB00274913430B6050
:1014DC0015E0264B00221A60FFF76CFC386108E01F
:1014EC00FFF768FC02463B69D31A022B01D9032390
:1014FC007AE11D4B1B6803F00203002BF0D17B68D3
:10150C001B6803F00803002B3AD07B689B69002B07
:10151C0019D0174B01221A60FFF74CFC386108E018
:10152C00FFF748FC02463B69D31A022B01D903236F
:10153C005AE10D4B5B6A03F00203002BF0D0012043
:10154C0000F09AFA1CE00A4B00221A60FFF732FCFA
:10155C0038610FE0FFF72EFC02463B69D31A022BD1
:10156C0008D9032340E100BF0010024000004242B2
:10157C00800442429E4B5B6A03F00203002BE9D1CC
:10158C007B681B6803F00403002B00F0A68000238B
:10159C00FB75974BDB6903F08053002B0DD1944BFB
:1015AC00DB69934A43F08053D361914BDB6903F0C1
:1015BC008053BB60BB680123FB758E4B1B6803F427
:1015CC008073002B18D18B4B1B688A4A43F48073B1
:1015DC001360FFF7EFFB386108E0FFF7EBFB024607
:1015EC003B69D31A642B01D90323FDE0814B1B68A3
:1015FC0003F48073002BF0D07B68DB68012B06D1E1
:10160C007B4B1B6A7A4A43F0010313622DE07B6823
:10161C00DB68002B0CD1764B1B6A754A23F0010357
:10162C001362734B1B6A724A23F0040313621CE0AF
:10163C007B68DB68052B0CD16D4B1B6A6C4A43F045
:10164C00040313626A4B1B6A694A43F00103136279
:10165C000BE0674B1B6A664A23F001031362644B71
:10166C001B6A634A23F0040313627B68DB68002B5C
:10167C0015D0FFF79FFB38610AE0FFF79BFB024692
:10168C003B69D31A41F28832934201D90323ABE070
:10169C00574B1B6A03F00203002BEED014E0FFF74C
:1016AC0089FB38610AE0FFF785FB02463B69D31AD8
:1016BC0041F28832934201D9032395E04C4B1B6ACB
:1016CC0003F00203002BEED1FB7D012B05D1484B1F
:1016DC00DB69474A23F08053D3617B68DB69002BBD
:1016EC0000F08180424B5B6803F00C03082B61D047
:1016FC007B68DB69022B46D13F4B00221A60FFF757
:10170C0059FB386108E0FFF755FB02463B69D31AD9
:10171C00022B01D9032367E0354B1B6803F00073E0
:10172C00002BF0D17B681B6AB3F5803F08D1304B9E
:10173C005B6823F400327B689B682D4913434B6034
:10174C002B4B5B6823F474127B68196A7B685B6AA9
:10175C000B43274913434B60274B01221A60FFF7B9
:10176C0029FB386108E0FFF725FB02463B69D31AD9
:10177C00022B01D9032337E01D4B1B6803F00073C8
:10178C00002BF0D02FE01C4B00221A60FFF712FB4D
:10179C00386108E0FFF70EFB02463B69D31A022BB7
:1017AC0001D9032320E0124B1B6803F00073002BBC
:1017BC00F0D118E07B68DB69012B01D1012313E028
:1017CC000B4B5B68FB60FB6803F480327B681B6A25
:1017DC009A4206D1FB6803F470127B685B6A9A42EA
:1017EC0001D0012300E0002318461837BD4680BD08
:1017FC0000100240007000406000424280B584B08E
:10180C0000AF786039607B68002B01D10123D0E0F8
:10181C006A4B1B6803F007033A689A4210D9674B6E
:10182C001B6823F0070265493B6813430B60634B4D
:10183C001B6803F007033A689A4201D00123B8E011
:10184C007B681B6803F00203002B20D07B681B68AD
:10185C0003F00403002B05D0594B5B68584A43F442
:10186C00E06353607B681B6803F00803002B05D012
:10187C00534B5B68524A43F460535360504B5B6864
:10188C0023F0F0027B689B684D4913434B607B68E7
:10189C001B6803F00103002B40D07B685B68012BB5
:1018AC0007D1474B1B6803F40033002B15D10123E0
:1018BC007FE07B685B68022B07D1414B1B6803F010
:1018CC000073002B09D1012373E03D4B1B6803F01F
:1018DC000203002B01D101236BE0394B5B6823F031
:1018EC0003027B685B68364913434B60FFF762FA6F
:1018FC00F8600AE0FFF75EFA0246FB68D31A41F281
:10190C008832934201D9032353E02D4B5B6803F0DB
:10191C000C027B685B689B009A42EBD1274B1B68DF
:10192C0003F007033A689A4210D2244B1B6823F049
:10193C00070222493B6813430B60204B1B6803F0E2
:10194C0007033A689A4201D0012332E07B681B6896
:10195C0003F00403002B08D0194B5B6823F4E062FE
:10196C007B68DB68164913434B607B681B6803F08C
:10197C000803002B09D0124B5B6823F460527B6880
:10198C001B69DB000E4913434B6000F021F8024643
:10199C000B4B5B681B0903F00F030A49CB5C22FA63
:1019AC0003F3094A1360094B1B681846FFF7C0F98B
:1019BC00002318461037BD4680BD00BF00200240F2
:1019CC0000100240301B00080C000020100000200A
:1019DC0080B487B000AF0023FB600023BB60002302
:1019EC007B6100237B6000233B611E4B5B68FB60CB
:1019FC00FB6803F00C03042B02D0082B03D027E068
:101A0C00194B3B6127E0FB689B0C03F00F03174A53
:101A1C00D35C7B60FB6803F48033002B10D0114B3C
:101A2C005B685B0C03F00103114AD35CBB607B6801
:101A3C000D4A02FB03F2BB68B2FBF3F37B6104E0DB
:101A4C007B680C4A02FB03F37B617B693B6102E020
:101A5C00054B3B6100BF3B6918461C37BD4680BC3B
:101A6C00704700BF0010024000127A00401B0008B3
:101A7C00501B000800093D0080B485B000AF7860B1
:101A8C000A4B1B680A4AA2FB03235B0A7A6802FB17
:101A9C0003F3FB6000BFFB685A1EFA60002BF9D100
:101AAC0000BF00BF1437BD4680BC70470C0000203F
:101ABC00D34D621070B500260C4D0D4C641BA41058
:101ACC00A64209D100F022F800260A4D0A4C641BEC
:101ADC00A410A64205D170BD55F8043B98470136B9
:101AEC00EEE755F8043B98470136F2E7541B000823
:101AFC00541B0008541B0008581B000803460244E2
:101B0C00934200D1704703F8011BF9E7F8B500BF09
:101B1C00F8BC08BC9E467047F8B500BFF8BC08BCC2
:041B2C009E4670471A
:101B3000000000000000000001020304060708097D
:101B400002030405060708090A0B0C0D0E0F1010FE
:041B5000010200008E
:041B54003101000853
:041B58000D01000873
:101B5C000300000004000000020000000024F40058
:081B6C00100000000100000060
:0400000508000CC51E
:00000001FF
